:100000000C949B020C94E2020C94E2020C94E20227
:100010000C94E2020C94E2020C94E2020C94E202D0
:100020000C94E2020C94E2020C94B42A0C94872BF8
:100030000C941C250C94E2020C94E2020C94E20253
:100040000C94E2020C94E2020C94E2020C94E202A0
:100050000C94E2020C9487250C94E2020C94E202C8
:100060000C94E2020C94E2020C94E2020C94E20280
:100070000C94E2020C94E2020C94E2020C94E20270
:100080000C94E2020C94E2020C94E2020C94E20260
:100090000C94E2020C94E2020C94E2020C94E20250
:1000A0000C94E2020C94E2020C94E2021E00100096
:1000B0001F0004000500060007001B001D000000D3
:1000C0000000000000002A2B2800000000000000B3
:1000D00000000000000000000029000000002C1EAD
:1000E0003420212224342627252E362D3738271E6A
:1000F0001F202122232425263333362E37381F0490
:1001000005060708090A0B0C0D0E0F101112131427
:1001100015161718191A1B1C1D2F3130232D3504E5
:1001200005060708090A0B0C0D0E0F101112131407
:1001300015161718191A1B1C1D2F3130354C0000CD
:1001400000000000000000000000000000000000AF
:10015000000000000000000000000000000000009F
:1001600000007E0F00D4FFFFFFC7000000780004EE
:100170007F3F1F643214643214783C1E1E140A053B
:100180002223252628292A2C2D2F303233353638A4
:100190003A3B3D3E4042434547494A4C4E505153FD
:1001A0005557595A5C5E6062646668696B6D6F7121
:1001B000737577797B7D7F81838587898A8C8E9023
:1001C000929496989A9C9E9FA1A3A5A7A8AAACAE2C
:1001D000AFB1B3B4B6B8B9BBBCBEBFC1C2C3C5C66C
:1001E000C7C9CACBCCCDCED0D1D2D2D3D4D5D6D715
:1001F000D7D8D9D9DADADBDBDBDCDCDCDCDCDDDD53
:10020000DDDDDCDCDCDCDCDBDBDBDADAD9D9D8D742
:10021000D7D6D5D4D3D2D2D1D0CECDCCCBCAC9C7E4
:10022000C6C5C3C2C1BFBEBCBBB9B8B6B4B3B1AF1B
:10023000AEACAAA8A7A5A3A19F9E9C9A98969492BB
:10024000908E8C8A89878583817F7D7B7977757392
:10025000716F6D6B6968666462605E5C5A59575570
:100260005351504E4C4A4947454342403E3D3B3A2C
:100270003836353332302F2D2C2A292826252322B3
:10028000FFAA7F55400001010101010101010102A6
:100290000202020202020202030303030303030336
:1002A0000404040404040405050505050606060601
:1002B00006070707070708080808090909090A0ABD
:1002C0000A0B0B0B0C0C0C0D0D0D0E0E0E0F0F0F61
:1002D00010101111111212131314141515161617EC
:1002E00017181819191A1A1B1B1C1D1D1E1E1F205A
:1002F00020212222232424252626272829292A2BA7
:100300002C2D2D2E2F3031323233343536373839CB
:100310003A3B3C3D3E3F40414243444546474849C5
:100320004A4C4D4E4F50515354555658595A5B5D97
:100330005E5F616264656668696B6C6D6F70727335
:100340007577787A7B7D7E8082838587888A8C8E9C
:100350008F91939596989A9C9EA0A2A3A5A7A9ABCE
:10036000ADAFB1B3B5B7BABCBEC0C2C4C6C9CBCDC0
:10037000CFD1D4D6D8DBDDDFE2E4E7E9EBEEF0F372
:10038000F5F8FAFDFF120353004400560058002010
:100390000050004100440000001203530044005686
:1003A00000580020005000410044000000040309F0
:1003B0000409025B00030100A0FA09040000010324
:1003C00001010009211101000122400007058103FC
:1003D00008000A09040100020300000009211101BC
:1003E0000001222200070582032000010705030304
:1003F000200001090402000103000000092111018D
:10040000000122B6000705840320000A1201000241
:1004100000000008EDFE60600100010200010660BE
:10042000FF0961A1010962150026FF0095207508EA
:1004300081020963150026FF00952075089102C00E
:1004400005010902A10185020901A100050919019F
:10045000290815002501950875018102050109305B
:1004600009311581257F95027508810609381581A6
:10047000257F950175088106050C0A38021581252E
:100480007F950175088106C0C005010980A101851D
:100490000319012AB700150126B7009501751081CF
:1004A00000C0050C0901A101850419012AA002154B
:1004B0000126A002950175108100C005010906A161
:1004C000018505050719E029E7150025019508753F
:1004D0000181020507190029EF1500250195F07526
:1004E00001810205081901290595057501910295FB
:1004F0000175039101C005010906A101050719E075
:1005000029E71500250195087501810295017508F7
:1005100081010507190029FF150026FF00950675C2
:1005200008810005081901290595057501910295B5
:100530000175039101C011241FBECFEFDAE0DEBFC9
:10054000CDBF04B603FE27C08091D5029091D6029C
:10055000A091D702B091D8028730904BA740B04B02
:10056000D1F41092D5021092D6021092D7021092B6
:10057000D80214BE84B7877F84BF0FB6F894A895BD
:1005800080916000886180936000109260000FBECF
:10059000E0E0F8E3099511E0A0E0B1E0E6E3FDE575
:1005A00002C005900D92AA3DB107D9F722E0AAED4D
:1005B000B1E001C01D92A53DB207E1F70E94EB1228
:1005C0000C943D2E0C9400000895089581E0089548
:1005D0000895811108C082EF611101C083EF0E946C
:1005E000090680E008958130E1F780EF6111F7CFCF
:1005F00081EFF5CF81E008950C94E60208950C9404
:10060000FE021F93CF93DF9300D000D00F92CDB79F
:10061000DEB749835A836B833091DC0189819A81EB
:1006200031111DC06623B9F02223A9F00E94770979
:10063000182F682F89819A810E94200969817A8107
:10064000812F0F900F900F900F900F90DF91CF910F
:100650001F910C9415210E944E09182FEFCF0E9474
:10066000770969817A81EDCFFC01262F4081518184
:100670006281738184810C94010381E00895CF939A
:10068000DF93D82FC92F60E00E9434036D2F7C2F99
:10069000DF91CF910C94FF02E1E0F0E0DF0102C0B6
:1006A000AA0FBB1F6A95E2F7BD01DF0102C0AA0FC6
:1006B000BB1F4A95E2F76A2B01C0EE0F2A95EAF7B5
:1006C000962F9823961302C08E2B0895E0958E23C3
:1006D0000895242F462F682F8091E3010E944C0338
:1006E0000C94DD080E94C0110E94C0040C94DA1121
:1006F0000C94DC1108950E946B080E947A032FEF7E
:1007000084E39CE0215080409040E1F700C000006D
:100710000C94AB250F931F93CF93DF938C0161E073
:100720000E943403EC01B8010E94C41E882309F41E
:1007300041C0B801CE010E94FC028823D9F1B80162
:10074000CE010E9455228823A9F1B801CE010E9452
:10075000AA22882379F1B801CE010E947D23882343
:1007600049F1B801CE010E94A81C882319F1F801B3
:100770008281882361F0CA35FDE5DF0721F170F43D
:10078000C115ECE5DE07A1F0CE3DDC45C9F0C8019E
:10079000DF91CF911F910F910C94FA02CB358DE52B
:1007A000D807A1F0CC35DD4591F70E94370DEFCF8A
:1007B0000E947B0380E0DF91CF911F910F910895FC
:1007C0000E94B00EF7CF0E94400DE1CF0E94430D72
:1007D000DECFDF92EF92FF920F931F93CF93DF93C1
:1007E000E82FF0E0E254FF4FD490282F269526956D
:1007F000269530E0F901E25AFE4F0491877010E02F
:10080000082E02C0159507950A94E2F7017011278A
:10081000F901E25BFE4FE490F12C082E02C0F59442
:10082000E7940A94E2F791E0E922FF24F901E25CFF
:10083000FE4FC491D0E002C0D595C7958A95E2F7E6
:10084000C170DD270115110519F081EE0E940B051D
:10085000E114F10419F086EE0E940B058D2D0E9423
:100860000906EF2819F086EE0E949C05012B19F06D
:1008700081EE0E949C05CD2B51F08CE2DF91CF914F
:100880001F910F91FF90EF90DF900C940906DF917C
:10089000CF911F910F91FF90EF90DF900895EF920D
:1008A000FF920F931F93CF93DF93EC01162F0AE073
:1008B0008881882309F454C0813009F04EC08981B1
:1008C000813099F47E0122E0E20EF11C8A810E94BF
:1008D0000906E7012196812F815050F3EFE9FFE0EF
:1008E0003197F1F700C00000F7CF823041F47E016C
:1008F00082E0E80EF11C8A810E940B05EACF83306A
:1009000041F47E01E2E0EE0EF11C8A810E949C051A
:10091000E0CF843011F02196DDCF2A81229690E03D
:1009200080E0AE014F5F5F4F2053330B2A3031051B
:1009300048F0019778F2EFE9FFE03197F1F700C056
:100940000000F7CF089FB001099F700D1124C90165
:10095000860F971F2981EA01E4CF0E94E903BACFED
:10096000DF91CF911F910F91FF90EF90089560E07C
:100970000C944F040C94E80281E008950C94BC049C
:100980000895CF93C82F0E94BA048C2FCF910C9456
:10099000BE04CF93DF93CDB7DEB72B970FB6F89495
:1009A000DEBF0FBECDBF4F83588769877A878B879D
:1009B00061110E94680D1E8285E0FE013796DE01FE
:1009C000119601900D928A95E1F78C819D81892B7A
:1009D00089F449815A816B817C818D819E810E943D
:1009E000600C2B960FB6F894DEBF0FBECDBFDF9123
:1009F000CF91089589819A8189238F3F51F3CE0148
:100A000001960E943D038111E4CFEBCFFC01808170
:100A100091810C94A409CF93C82F882309F48AC02C
:100A20008238C1F40E94AC2381FD84C089E30E9416
:100A3000000D0E94990D2FEF31EE84E021503040DF
:100A40008040E1F700C0000089E30E94070DCF91CC
:100A50000C94990D8338A1F40E94AC2380FD6AC0E8
:100A600083E50E94000D0E94990D9FEF21EE34E076
:100A7000915020403040E1F700C0000083E5E5CF11
:100A80008438A1F40E94AC2382FD54C087E40E9404
:100A9000000D0E94990D8FEF91EE24E0815090405F
:100AA0002040E1F700C0000087E4CFCF8CEF8C0F2F
:100AB000813A90F46C2F80910001909101010E9485
:100AC0002224882329F08C2F0E94070D0E94990D63
:100AD0008C2F0E94000DBBCF80E28C0F883048F431
:100AE000C77081E001C0880FCA95EAF70E94490DDE
:100AF000AECF8BE58C0F833038F42C2F2452330B80
:100B0000C901CF910C94E223E8E5EC0FE73150F4F2
:100B1000F0E0EE0FFF1FE45DFE4F80819181CF91E9
:100B20000C94F823C03F30F08C2F0E947413CF91A7
:100B30000C944714CF910895882309F452C0823849
:100B400071F40E94AC2381FF4CC089E30E94000D28
:100B50000E94990D89E30E94070D0C94990D83382A
:100B600059F40E94AC2380FF3CC083E50E94000D35
:100B70000E94990D83E5EFCF843859F40E94AC238D
:100B800082FF2FC087E40E94000D0E94990D87E428
:100B9000E2CF9CEF980F913AF0F290E2980F9830E4
:100BA00050F4877091E001C0990F8A95EAF7892F78
:100BB0000E944F0DD2CF9BE5980F933020F490E028
:100BC00080E00C94E22398E5980F973120F490E0B0
:100BD00080E00C94F823803F20F00E94CE130C9408
:100BE000471408951F93CF93DF93182FEB010E94B2
:100BF0000B05209731F4812FDF91CF911F910C9439
:100C00009C058FE99FE00197F1F700C00000219754
:100C1000F0CF70E060E0893311F460E570E00C948F
:100C2000F205882321F00E94490D0C94990D089536
:100C3000882321F00E944F0D0C94990D0895AF92D6
:100C4000BF92CF92DF92EF92FF920F931F93CF93B9
:100C5000DF936C01D62FC72FFC011281058102950D
:100C60000F700E941E0DE82E8823A1F0E12E1123A3
:100C700089F08C2F807F803429F080E28D0FE12C69
:100C8000883040F082E00E94EA0D0E941E0D91E043
:100C9000E82EE926AC2EA2949FE0A922B12CF50102
:100CA000E15CF14D0C94912D0C2F0F70C07F11F071
:100CB0000295007F1123A9F0002359F080E28D0FE7
:100CC000883010F0D11109C0802F0E94490D0E9478
:100CD000990D8D2F0E940B0514C0802F0E945A0D74
:100CE000F6CF8D2F0E949C05002359F080E28D0FD6
:100CF000883010F0D1112EC0802F0E944F0D0E941D
:100D0000990D28E0A21AB10884E0A816B10420F4D5
:100D10000E94AC230E94C104EE2009F47CC10E9411
:100D20001A0D80FD78C1F60112820E94140D0E94F6
:100D3000EE08C6010E942D080E94140DDF91CF918C
:100D40001F910F91FF90EF90DF90CF90BF90AF90E9
:100D50000C94F908802F0E94600DD1CFFC2FFF70FA
:100D6000FF2EC07FC03219F0F29480EFF822DD230D
:100D700069F0D13049F1112391F1002351F1F601CD
:100D8000858180FFA6CF8F70858323C0112381F0DA
:100D9000011106C00E947C0D8F290E941106B1CF5F
:100DA0000130C1F70E947C0D8F290E94820DA9CFCE
:100DB000011106C00E948F0D8F2D0E941806A1CF31
:100DC000013009F49ECFF6CF112329F0063008F048
:100DD00098CF8F2DE2CF053008F093CFEDCF0023D1
:100DE00059F3D93349F4FFEF27EE83E0F150204067
:100DF0008040E1F700C000008D2F0E949C0581CF4C
:100E00008C2F86958695837069F0813009F079CFB3
:100E10008D2F9C2F9370111102C090E080E00E94F2
:100E2000F8236FCF8D2F9C2F9370111102C090E08B
:100E300080E00E94E22365CF8D2F112329F00E94CC
:100E400074130E9447145DCF0E94CE13FACF8C2FEB
:100E5000837081F5111155CF4D2F429546954770FE
:100E6000440F440F8D2F8F70042E01C0880F0A94F9
:100E7000EAF72D2F2071D4FF07C02FE030E001C02A
:100E8000220F4A95EAF72095C695C695C370822B26
:100E9000C23051F0C33059F0C13019F00E94CF0870
:100EA00030CF0E94CA082DCF0E94D4082ACF0E94BA
:100EB000C80827CF8695112311F08C2F81708823C5
:100EC00009F41FCF4D2F429546954770440F440FAC
:100ED0008D2F8F70042E01C0880F0A94EAF72D2FF2
:100EE0002071D4FF07C02FE030E001C0220F4A95E7
:100EF000EAF72095C695C695C370822BC23051F093
:100F0000C33059F0C13019F00E941509FACE0E9481
:100F10001009F7CE0E941A09F4CE0E94DD08F1CE26
:100F2000CF70112329F08C2F0E94EE088D2F35CF22
:100F30008D2F0E9418068C2F0E94F908E2CED23F16
:100F400089F160F4D03FC9F0D13F29F1112309F4B0
:100F500042C00111BECE8C2F8F7121C0D33F39F119
:100F6000D43FA1F7112369F1CF718C2F0E94EE08B5
:100F700063E08C2F0E94CF0DC4CE112341F00530C9
:100F800008F0BFCE8C2F8F710E940509BACE0630B3
:100F900008F0B7CEF7CF8C2F8F71112369F20E9422
:100FA000EE08AFCE8C2F8F711123C9F3C5CF11235B
:100FB00029F08C2F8F710E94E608A3CE0E94E308CF
:100FC000A0CE81E00E94EA0D023008F49ACE82E0C1
:100FD0000E94EA0D96CE002359F0D93309F00CCFC8
:100FE0009FEFE7EEF3E09150E040F040E1F702CFF1
:100FF0008C2F8F71A1CF4C2F4F706D2FC6010E9487
:10100000A80F0E94DA097DCE4C2F4F706D2FC601BC
:101010000E94AB0F76CEDF91CF911F910F91FF9081
:10102000EF90DF90CF90BF90AF9008950F931F93F4
:10103000CF93DF93EC01688179818A810E94B009A6
:101040008C010E941F090E94C708B801CE01DF91E0
:10105000CF911F910F910C941F06CF93DF93EC015A
:101060008B819C81892B29F08881998189238F3FED
:1010700059F4DF91CF910895CE010E941608CE0158
:10108000DF91CF910C943F03CE010E948A0381111E
:10109000F3CF0E941E0D882361F38A81882349F3D0
:1010A00082E0DF91CF910C94EA0D90E080E00E9405
:1010B000E22390E080E00E94F8230E94680D0E94E5
:1010C000790D0E94990D0E9471150C9447140E948D
:1010D0000E0D0C9455080E94570D0C946708282F8C
:1010E000892F82958F70903C80F48A30B0F48430E0
:1010F00020F4823090F480E008958630E1F781E0BA
:10110000283E88F0213FB9F70EC08C3011F08F30A7
:1011100091F793FB882780F9089581E0203F39F00B
:1011200018F4283E40F70895243F29F7FCCF08958E
:10113000FC01808191810E94A4090C946F08CF93D7
:10114000DF9300D000D00F92CDB7DEB70F900F9095
:101150000F900F900F90DF91CF910895CF93DF9371
:1011600000D000D000D0CDB7DEB726960FB6F894E9
:10117000DEBF0FBECDBFDF91CF91089508950C94CF
:10118000BE080E94BF088093E4010C94550808959E
:101190000C94C1089091E401892B0C94C1089091A2
:1011A000E40189230C94C1089091E40189270C94EF
:1011B000C1080C94BE080C94D9080E94DB088093E7
:1011C000E3010C94550880E00C94DD0891E001C027
:1011D000990F8A95EAF7892F0C94DD0821E030E019
:1011E00001C0220F8A95EAF78091E301822B0C94CB
:1011F000DD0821E030E001C0220F8A95EAF7209552
:101200008091E30182230C94DD0821E030E001C0ED
:10121000220F8A95EAF78091E30182270C94DD087A
:101220009091E301892B0C94DD089091E3018923CF
:101230000C94DD089091E30189270C94DD08089552
:10124000E82F29E0929FE00D11248E2F877041E056
:1012500001C0440F8A95EAF7E695E695E69583E0A6
:10126000E89FF0011124E352FE4F30E020E070E0EF
:101270005191DF011197CB01022E02C096958795FF
:101280000A94E2F7817081958527842385278C93C2
:101290002F5F3F4F2330310559F70895E82F29E09C
:1012A000929FE00D11249E2F9770E695E695E695A6
:1012B00083E0E89FF0011124E352FE4F50E040E04C
:1012C00080E0219130E0092E02C0369527950A94DE
:1012D000E2F721703327042E01C0220F0A94EAF7A7
:1012E000822B4F5F5F4F4330510559F70895DF92CE
:1012F000EF92FF920F931F93CF93DF937C010091A6
:10130000E3018091E401082BC7E0D0E010E0DC2E7F
:10131000C8010C2E02C0959587950A94E2F780FDCE
:101320000CC02197A0F7D12C8D2DDF91CF911F916B
:101330000F91FF90EF90DF900895B7018C2F0E94DE
:10134000C410019771F3F0CFCF93DF93D82FC92F3B
:101350000E9477096D2F7C2FDF91CF910C94C410E0
:101360001F93CF93DF93162FD72F9091DC019923F2
:1013700039F0862F972FDF91CF911F910C94A409FC
:10138000882391F0862F972F0E947709C82F682F06
:10139000812F9D2F0E942009612F7D2F8C2FDF919F
:1013A000CF911F910C94C410862F972F0E944E0945
:1013B000C82FF2CFEF92FF920F931F93CF93DF933B
:1013C0008C01892B89F0F12CEE24E394E80121961D
:1013D000F8018491843709F457C0A0F4823009F4ED
:1013E0003EC048F48130D1F0DF91CF911F910F9131
:1013F000FF90EF9008959CEF980F9037A8F70E9408
:101400000B050AC0853709F44CC09CE7980F90374C
:1014100058F78F770E949C058E0116C00E5F1F4FF4
:10142000FE01849190E2980F983060F48770FE2D51
:1014300001C0FF0F8A95EAF78F2F0E946B0D0E9463
:10144000990D02C00E940B058F2D815008F4BECF6C
:10145000EFE9FFE03197F1F700C00000F6CF0E5F33
:101460001F4FFE01849190E2980F983050F48770DE
:10147000FE2D01C0FF0F8A95EAF78F2F0E94710D94
:10148000DECF0E949C05E0CF0E5F1F4FFE01C4918E
:10149000C150D0F28FE99FE00197F1F700C0000042
:1014A000F7CF0E5F1F4FFE01F490CECF1F93CF9367
:1014B000DF93E091E50116E08091E6018E1304C010
:1014C000DF91CF911F910895CE2FD0E01E9FF001A4
:1014D0001124E951FE4F40815181628173818481E1
:1014E00095810E94AE08FE013196E770E5CF4091EC
:1014F0001702509118026091190270911A0280919E
:101500001B0290911C020C94AE081F93CF93DF93A3
:1015100080911C02807FA9F480911902882389F0B0
:101520008091E501C091E601609117027091180267
:10153000A0911A02B0911B02D62FD72316E0C81330
:1015400004C0DF91CF911F91089590E0109711F0A2
:10155000DF3F19F401968770F2CF189F9001199F11
:10156000300D1124F901E951FE4F41814713F2CFAB
:1015700040814613EFCF42814111ECCF438154812A
:101580004A1B5B0B483C510528F780911C028F7069
:10159000806180931C02F901E451FE4F80818F70BD
:1015A0008061808387E192E00E942D08DF91CF91D6
:1015B0001F910C94560AAF92BF92CF92DF92EF9296
:1015C000FF920F931F93CF93DF93CDB7DEB72B9787
:1015D0000FB6F894DEBF0FBECDBF8C0185E0F801D9
:1015E000DE01179601900D928A95E1F7F801E280ED
:1015F00087E1C82E82E0D82E60911A0270911B02FA
:101600006115710509F440C19091170220911802EB
:10161000822F89238F3F09F437C140815181A380F4
:10162000B480F0901902F501E61BF70BFF2009F4D6
:10163000DDC080911C02382F307FE83CF10508F0B6
:10164000AFC0311179C0FE2C521323C0941321C0B6
:10165000E1101FC08F70806180931C020E94770A86
:10166000C6010E942D0880911C02F80185838F2DF0
:101670002B960FB6F894DEBF0FBECDBFDF91CF9192
:101680001F910F91FF90EF90DF90CF90BF90AF90A0
:101690000895AB2829F0852F84238F3F09F00DC1D1
:1016A00080E0F82FF170DF2EE091E5012091E60156
:1016B00036E080FD1CC0EE20D1F280911C028160DA
:1016C00080931C02F12CD3CF8E2F90E03E9FF0012F
:1016D0001124E951FE4F6181561306C060816413E5
:1016E00003C06281E612E7CFFC013196E770E21396
:1016F000EBCF4F8358878F8198850E94A409292FAB
:1017000022952F70903260F0225F2F70223078F493
:101710009F7051F0F8019581907F31F4D12C0AC06F
:101720009F7011F08823D1F3805E8830B8F3C80130
:101730000E942D08FD2C9BCF521306C0941304C0A9
:10174000F801EE2009F46DC0C8010E9498088823B2
:1017500019F1EE2009F180911C02803270F0209185
:101760001702309118023A8329831B82BD82AC8212
:101770008E83CE0101960E942D0886E0F801A7E134
:10178000B2E001900D928A95E1F70E94850A0E94CD
:10179000770AFF24F3946BCFC8010E942D08F9CF7C
:1017A000311113C07A2DBB86AA866E2D8B850E94BF
:1017B0009F0887E192E00E942D0886E0F6011192D1
:1017C0008A95E9F70E94770A7DCF5213BDCF941313
:1017D000BBCFE110B9CFF8018583C8010E942D0865
:1017E00086E0F60111928A95E9F741CFE83CF105D0
:1017F00008F03DC0FE2CEE2079F252132AC094135B
:1018000028C080911C0280FD1BC0982F907FC1F0E2
:10181000F8018583903F31F0982F907F905F8F7013
:10182000892B8583C8010E942D0886E0F801A7E175
:10183000B2E001900D928A95E1F70E94770A17CFE6
:1018400086E0F801A7E1B2E001900D928A95E1F7F8
:101850000ECFC8010E94980881118FCF80911C0281
:10186000816080931C02C8010E942D0800CF7A2D50
:10187000BB86AA866E2D8B850E949F0886E0F601A6
:1018800011928A95E9F7D9CFEE2009F485CFC801E6
:101890000E949808F82E882309F47ECF86E0F8018C
:1018A000A7E1B2E001900D928A95E1F787E192E01D
:1018B0000E9406050E94850AC0CF81E08E25F1CEE8
:1018C0001F93CF93DF93CDB7DEB72C970FB6F89465
:1018D000DEBF0FBECDBF4F83588769877A878B875E
:1018E0009C87CE0107960E94DB0A882369F08A85CF
:1018F0009B85892B39F04F815885842F85238F3F15
:1019000009F077C016E065C086E0FE013796DE017B
:10191000119601900D928A95E1F76A857B85611594
:10192000710581F35F814885842F85238F3F51F3B3
:101930002091E60130E0C901019687709927E09176
:10194000E501E817190671F40E946B081092E60190
:101950001092E50186E0E7E1F2E0DF011D928A9551
:10196000E9F7D0CF59834A837D836C8396E0929FB9
:10197000D001939FB00D1124A951BE4FFE013196A5
:1019800001900D929A95E1F78093E6010E94560A24
:10199000B9CF819FC001112489519E4F0E94DB0A5B
:1019A0008823E9F0E091E5011E9FF0011124E9513F
:1019B000FE4F4081518162817381848195810E94B3
:1019C000AE088091E50190E0019687709927809399
:1019D000E5018091E5019091E6018913DACF2C961B
:1019E0000FB6F894DEBF0FBECDBFDF91CF911F9130
:1019F000089569857A858B859C850E94AE0882CF83
:101A0000682F80910001909101010C94A624682F09
:101A100080910001909101010C94B124809100010A
:101A2000909101010C94BC2480911D0285958595AF
:101A30008595089580911D028770089590911D02EB
:101A4000977081E009F480E008959091A50292FBDF
:101A5000222720F9281751F080FB92F99093A502D4
:101A60008091A4029091A5020C942D0E089580916E
:101A7000A50282FB882780F991E089270C94250D27
:101A800081E00C94250D80E00C94250D809141029D
:101A9000089590914102982B909341020895982FB8
:101AA000909580914102892380934102089510927C
:101AB0004102089590914002982B9093400208951E
:101AC000982F909580914002892380934002089539
:101AD00010924002089590913F02982B90933F02FC
:101AE0000895982F909580913F02892380933F021B
:101AF000089510923F02089580911E02089508955E
:101B00000C947F0D9091A50292FD08C090911E0249
:101B1000981721F080931E020C94800D08958091F7
:101B20001E02882329F010921E0280E00C94800D82
:101B30000895E0910001F0910101809141028083BC
:101B4000E0910001F0910101808190914002892B88
:101B50008083E0910001F0910101808190913F022A
:101B6000892B808390911E02992381F0E0910001DE
:101B7000F09101018081892B8083809100019091F7
:101B800001010E940E2481110E948F0D809100019D
:101B9000909101010C94B82308950C94CC0D909170
:101BA000A50292FD10C098E0899F90011124622B3C
:101BB00060931D020E94EE0880911D028595859517
:101BC00085950C94CD0D0C94EE0810921D0280E0CA
:101BD0000C94CD0D90911D028095892380931D0258
:101BE000282F277039F4282F082E000C330B92175A
:101BF000130621F49091A50292FF07C08595859563
:101C000085950E94F9080C94E50D08956FEF7FEF1C
:101C100090E080E00C94272E90E080E00E94032E5C
:101C2000893E9E4F11F40C945F1E80E0089582E07F
:101C300090E00C94F52D83E090E00C94F52DCF937B
:101C400084E090E00E94F52DC82F82E290E00E948F
:101C5000F52D982F8C2FCF910895CF93682FC92FF2
:101C600084E090E00E94092E6C2F82E290E0CF91F8
:101C70000C94092EAB01BC018FE090E00C941B2E5C
:101C8000AB01BC0183E190E00C941B2E60E070E09E
:101C9000CB010C94400E60E070E0CB010E943A0E44
:101CA0000C94460E69EE7EEF90E080E00E94272EB5
:101CB00060E082E090E00E94092E60E083E090E026
:101CC0000E94092E1092E40160E084E090E00E94FE
:101CD000092E60E082E290E00E94092E60E085E03B
:101CE00090E00E94092E60E086E090E00E94092EBC
:101CF0006FEF87E090E00E94092E40E050E0BA01CB
:101D000088E090E00E941B2E60E08DE090E00E9451
:101D1000092E40E050E0BA0188E190E00E941B2EBD
:101D200060E087E190E00E94092E40E050E0BA01B7
:101D30008CE190E00E941B2E70E060E080E290E079
:101D40000E94272E40E050E0BA0188E190E00E9416
:101D50001B2E80E00E94781E0E94AC1E0C944B0E3D
:101D60000C94520E682F8EE090E00C94092E0E9485
:101D7000582560934D0270934E0280934F029093CA
:101D800050026093490270934A0280934B029093F1
:101D90004C0208950E94582560934D0270934E02A4
:101DA00080934F02909350026093450270934602D5
:101DB0008093470290934802089585B7806885BF55
:101DC00085B7806885BF0895089508950C94E40E42
:101DD00008950C94E80E0E94DD0E83EA91E10E94C2
:101DE000CF250E94E50E0C94E60E81E008950C9438
:101DF000F50E089508950E94F90E0C94FA0E0E94B3
:101E000043250E94BB1E0E946E120E94BF1B0E94AF
:101E1000551D0C94E90EAF92BF92DF92EF92FF92A4
:101E20000F931F93CF93DF9300D000D00F92CDB7C5
:101E3000DEB70E947D1281110E94B70E80E00E94E1
:101E4000DE118C0180914302909144025C01A02636
:101E5000B1268017910709F45BC08091510281FD82
:101E60000E94E711D12CEE24E394F12CC5018E21C0
:101E70009F21892B09F446C00E94F70E8823A9F000
:101E8000D9821A820E211F2181E0012B09F480E002
:101E90008B830E944C258160782F9D838C834981A0
:101EA0005A816B818D810E94C90480914302909177
:101EB0004402E826F926F0924402E09243020E948E
:101EC000FA1B0E94BD1D81110E94CA0E0E9461145E
:101ED0000E94AC2390914202891759F10E94AC23D1
:101EE000809342020F900F900F900F900F90DF9110
:101EF000CF911F910F91FF90EF90DF90BF90AF9027
:101F00000C94C104D394EE0CFF1C89E0D812AECF20
:101F10008FEF89838A831B820E944C258160782FF2
:101F20009D838C8349815A816B818D810E94C90474
:101F3000C6CF0F900F900F900F900F90DF91CF9121
:101F40001F910F91FF90EF90DF90BF90AF90089599
:101F500090E080E008950895FC01EE0FFF1FE25924
:101F6000FE4F859194910895CF93DF930E94C810FE
:101F7000EC01811520E5920708F04BC0811530E493
:101F8000930708F0B2C0803E910518F5803C91059A
:101F900008F09FC0883A910570F4853A910508F0E1
:101FA00095C08130910529F10497813A910508F196
:101FB000D0E0C0E01EC08F3B9105D1F3C85AD0E0FD
:101FC000CC0FDD1FC65ADE4F0990D881C02DD464D6
:101FD00010C0811540E2940780F48F3F910509F00D
:101FE00040F4883E910528F0805F9109D0654097C4
:101FF000F8F6CE01DF91CF910895C11580E3D8079F
:1020000008F46DC0CE019927D3FD6CC0EC01D06CF3
:10201000F0CFC11595E5D90760F5C11524E5D207C4
:1020200008F094C0C11533E5D30778F4C11542E533
:10203000D40708F07AC0C11581E5D80708F458C064
:10204000DC2FCC27C16FD06AD4CFCE018370992703
:1020500021E030E002C0220F331F8A95E2F7C695D7
:10206000C69590E2C99FE0011124C22BD32BDA68F8
:10207000C0CFC1152AE5D207B0F4C11539E5D307A1
:1020800008F074C0C11546E5D40708F464C0CE0159
:1020900098558F3F910511F008F08ACFDC2FCC279F
:1020A000C06FD06AA6CFCE0190568115904208F03D
:1020B0007FCF8D2F8F710E94601190E0982F88271D
:1020C00088279F719C012C2BE9014EC0A497D064F6
:1020D00090CF805C91090E94AC0FEC018ACFCE01B9
:1020E0009F70F9CFEC01D86C84CFDF70D06A81CFBC
:1020F000CE0174E0969587957A95E1F783702C2F41
:1021000026952695237040E2249F90011124382BB8
:102110008C2F8370C1E0D0E002C0CC0FDD1F8A9508
:10212000E2F7C22BD32BDC6864CFCE0183709927F2
:1021300021E030E002C0220F331F8A95E2F7C695F6
:10214000C69580E2C89FE0011124EBCFDC2FCC279D
:10215000C46FD06A4ECF8C2F0E946011C82FD0E080
:10216000DC2FCC27CC27DF71D06243CF8C2F8F7030
:102170000E94601134E0D695C7953A95E1F7CF708B
:10218000DC2FC82FD06935CF0E9415210C94B40FD5
:10219000803E910599F1C8F48133910509F476C028
:1021A00048F48932910509F46AC08A32910509F42C
:1021B00074C0089589339105D1F082389105B9F042
:1021C0008533910509F454C00895843E910599F131
:1021D00038F4823E9105F9F0833E910509F10895A6
:1021E000863E910599F1873E9105B9F108952091B8
:1021F000A4022370A1F080EE90E008952091A40243
:1022000020FD52C03091A50230FF09C024FF4FC00D
:1022100090E080E004C02091A40222FDF7CF089551
:102220002091A40222FD46C03091A50230FDE3CFEB
:1022300024FFF5CFEDCF2091A50221FFF0CF8091B3
:10224000A40284FDE5CF87EE90E008952091A402DA
:1022500023FFE5CF24FDDCCFF6CF2091A40223FDA0
:102260002CC03091A50231FFE3CF84EE90E00895B9
:102270002091A40225FFD3CF89E290E00895209118
:10228000A40225FFCCCF85E390E008952091A4021D
:1022900026FFC5CF8AE290E008952091A40226FF90
:1022A000BECF81E390E0089589E390E0089583EE46
:1022B00090E0089582EE90E0089586EE90E0089513
:1022C0009091A40292FF06C0282F28712830F9F4BB
:1022D000877F846093FF06C0282F28712831F1F48E
:1022E000877E84612091A50220FF06C0382F3871B7
:1022F0003830D9F4877F816021FF06C0282F2871EC
:102300002831D1F4877E816194FD877E0895282F3E
:1023100024712430F9F68B7F8860DCCF282F24715C
:10232000243101F78B7E8861DDCF382F3171313058
:1023300019F78E7F8860E0CF282F2171213121F796
:102340008E7E8861E1CF80E008950C94060E0E9495
:102350007D122FEF86E791E0215080409040E1F719
:1023600000C000000E947D1280E00E94DE1180FF0C
:1023700004C00E94A5110C94AB2508950C94A711DC
:102380000E940C0E811102C00E94B00E0E94170E16
:10239000809351020E941F0E9093A5028093A40285
:1023A0000E94BE110E941B0E0E94C8088091E3018A
:1023B0000C94DB080C94E4020C94E502E82FF0E0A6
:1023C000EE0FFF1FE855FD4F80819181089508951C
:1023D00080EA8A95F1F7089500C008950C94E811F9
:1023E000F894E82FE295EF70F0E041A18F7021E0C2
:1023F00030E0B90102C0660F771F8A95E2F7CB0182
:10240000962F9095942391A392A1892B82A37894DF
:102410000895CF93DF9380EF0E94F011C8E8D1E0D8
:1024200089918F3F11F00E94F01181E0C139D807E6
:10243000B9F7DF91CF910895EF92FF920F931F9319
:10244000CF938C01C62FF894809A889878940E9434
:10245000EC11E8E8F1E050E040E0F12CE12C61E023
:1024600070E021912F3FB9F1A22FA295AF70B0E09B
:1024700090968C9190E02F7002C0959587952A9543
:10248000E2F780FD28C0CB01042E02C0880F991FFF
:102490000A94E2F7E82AF92A4F5F5F4F4930510565
:1024A00001F780EF0E94F01161E0E114F10409F4FA
:1024B00060E08C2F0E94EE116C2F70E0660F771F8A
:1024C000600F711FFB01F182E082CF911F910F918C
:1024D000FF90EF90089590E080E0DCCF0E94091219
:1024E0001092A7021092A6021092A9021092A802BE
:1024F00081E00E94B1120C9472031F93CF93DF937B
:1025000000D0CDB7DEB71A82198260E0CE01019605
:102510000E941C1242E050E0BE016F5F7F4F86EACE
:1025200092E00E94E82D9C0111E0892B09F410E053
:10253000232B31F089819A819093A7028093A60280
:10254000212F41E068EA72E086EA92E00E94B2122E
:102550000E947803812F0F900F90DF91CF911F91F0
:1025600008950895FF920F931F93CF93DF93F82E52
:10257000092F162FD72FC42F222349F081E08093F3
:1025800054020E944C2590935302809352028091F2
:1025900054028823A1F080915202909153020E942C
:1025A0007825059760F0EF2DF02FA12FBD2F90E03B
:1025B00080E0D0E08C179D0744F010925402DF9128
:1025C000CF911F910F91FF900895219131912D93FB
:1025D0003D930196EFCF0E94CE240E9472270E9465
:1025E0008B270E949D270E94FB0EFBCF80915B02F0
:1025F00080FF12C0609107018AE0689FB00111243A
:1026000075956795759567956038710580F56115C5
:10261000710579F1862F089581FF07C06091070148
:1026200085E0689FB0011124EFCF6091070182FD22
:102630000AC080915A028823B9F0909106016091F6
:102640000701891710F08AE0ECCF869FB0011124B2
:102650008AE0869F9001879F300D1124692F70E0DA
:10266000C9010E945B2DD0CF6AE070E0D3CF8FE725
:10267000089581E0089580915B0280FF0CC0609115
:10268000030170E0759567957595679561157105FE
:1026900049F1862F089581FF06C06091030170E023
:1026A00075956795F3CF6091030182FD0BC0909102
:1026B00059029923A1F060910201809103019617BC
:1026C00038F0682F70E06038710500F38FE70895E7
:1026D000899FC001112470E00E945B2DF4CF61E05E
:1026E00070E0D7CF81E00895803F31F40E94F61268
:1026F000819580935F020895813F19F40E94F6123C
:10270000F8CF823F31F40E94F612819580935E02E9
:102710000895833F19F40E94F612F8CF893F29F4F7
:102720000E943B138093600208958A3F21F40E9427
:102730003B138195F7CF8B3F31F40E943B1381957A
:102740008093610208958C3F19F40E943B13F8CFE7
:102750009CE0980F953070F4845F990B21E030E095
:1027600001C0220F8A95EAF780915D02822B809347
:102770005D0208958D3F31F480915B02816080930A
:102780005B0208958E3F21F480915B028260F7CF57
:102790008F3FB9F780915B028460F1CF40915E0278
:1027A000803F59F480915F0287FF0DC010925F0255
:1027B00041110BC010925A0208C0813F81F48091F0
:1027C0005F0218169CF3442381F08091600290917F
:1027D0006102892B09F05AC0109259020895823F74
:1027E00049F447FFF0CF10925E0280915F028111A1
:1027F000ECCFE0CF833F19F41416ACF3E4CF909103
:102800006002893F29F41916F4F610926002DBCFBA
:102810008A3F19F497FFD7CFF8CF909161028B3F91
:1028200029F497FFD0CF10926102CDCF8C3F19F4DD
:102830001916CCF3C8CF9CE0980F953090F4845FC4
:10284000990B21E030E0B90102C0660F771F8A952D
:10285000E2F7CB01809590915D02892380935D0220
:10286000B2CF8D3F31F480915B028E7F80935B020B
:10287000AACF8E3F21F480915B028D7FF7CF8F3FEF
:1028800009F0A1CF80915B028B7FF0CF08950E9469
:102890004C2520915E0230915F02232B21F0809322
:1028A0005702909358022091600230916102232BCD
:1028B00021F080935502909356028CE592E00C949F
:1028C000D323EF92FF920F931F93CF93DF9300D008
:1028D00000D000D0CDB7DEB786E0ECE5F2E0DE0157
:1028E000119601900D928A95E1F7E0905E02F090CA
:1028F0005F02009160021091610210925E021092DC
:102900005F0210926002109261028F2D8E2991F069
:1029100080915702909158020E9478259C018091E5
:102920005A02882309F443C09091080192171306B4
:1029300008F44BC0802F812B91F08091550290912B
:1029400056020E9478259C0180915902882309F43F
:102950007BC0909104019217130608F483C0809104
:102960005E0290915F02892B90916002892B909179
:102970006102892B11F00E944714EB82FC820D83C7
:102980001E8386E0FE013196ACE5B2E001900D9227
:102990008A95E1F726960FB6F894DEBF0FBECDBF3D
:1029A000DF91CF911F910F91FF90EF90089540918B
:1029B00009019AE0499FA00111244217530708F02A
:1029C000B9CF8F5F80935A0202C08F3FD1F7EE20BC
:1029D00059F00E94F6129FEF1E140CF491E0899FAB
:1029E000802D112480935E02FF2059F00E94F61280
:1029F0009FEF1F140CF491E0899F802D1124809388
:102A00005F0230915E02332309F494CF20915F027C
:102A1000222309F48FCF45EB3403C00111249923FD
:102A200059F090935E0245EB240390011124332367
:102A300039F030935F027ECF81E080935E02F3CF66
:102A400081E080935F0276CF409105019AE0499F33
:102A5000A00111244217530708F081CF8F5F8093A4
:102A6000590202C08F3FD1F7002359F00E943B1357
:102A70009FEF10160CF491E0899F802D1124809314
:102A80006002112359F00E943B139FEF11160CF4C2
:102A900091E0899F802D1124809361023091600222
:102AA000332309F45CCF20916102222309F457CF2C
:102AB00045EB3403C0011124992359F0909360022F
:102AC00045EB240390011124332339F03093610244
:102AD00046CF81E080936002F3CF81E08093610272
:102AE0003ECF86E0ECE5F2E0DF011D928A95E9F742
:102AF00010925A021092590210925B020895CF92DE
:102B0000DF92EF92FF920F931F93CF93DF93D62F15
:102B1000C72F982F711113C0442329F0E82FF0E03C
:102B2000EB57FD4F9491692F792F892FDF91CF912A
:102B30001F910F91FF90EF90DF90CF900895272F76
:102B400030E0E82FF0E0442321F0EB57FD4FE49113
:102B5000F0E086E0D89F700111240FEF10E0C7016C
:102B6000B8010E94472D8D2F90E0880F991FA5E591
:102B7000A69FA001A79F500D1124841B950BD82E52
:102B8000DD0CD80EC801821B930B8E9FA0018F9F76
:102B9000500D9E9F500D1124952FDC9EE0011124B5
:102BA000CD2FDD27D801AC1BBD0BED01CE9FD00191
:102BB000CF9FB00DDE9FB00D11248B2FE801CD19F2
:102BC000D1096E01C29EE001C39ED00DD29ED00DF0
:102BD0001124CD2FDD270C1B1D0B0E9FE0010F9F35
:102BE000D00D1E9FD00D11242E2F63307105D9F00A
:102BF0003CEFE31633E0F30668F461307105B9F099
:102C000062307105C1F0AFEFEA16F10448F4852F88
:102C10009D2F06C06430710589F066307105B9F3E7
:102C2000692F722F83CF9B2F8E2F252FF9CF9E2FA9
:102C30002B2F852FF5CF8D2F9E2FF7CF8E2F2D2F5A
:102C4000EFCF41E00C947F1508950C942116CF939B
:102C5000DF93982F762F842FE901692F0E94251684
:102C6000798368838A83DF91CF9108958091AA0246
:102C7000982F9E7F29F4817082608093AA02089524
:102C80008A34E8F381708864F8CF88E090E00C948F
:102C9000FD2D0F931F93CF93DF938B01D82FC92F57
:102CA0000E943616A8016D2F7C2F88E090E0DF91FE
:102CB000CF911F910F910C941B2ECF93DF9300D0D7
:102CC00000D0CDB7DEB78091AA029091AB02A0915F
:102CD000AC02B091AD0289839A83AB83BC83BC0103
:102CE000CD010F900F900F900F90DF91CF910C942A
:102CF0004916CF93DF9300D000D0CDB7DEB7EAEA14
:102D0000F2E083E0808311828FEF828383831482D9
:102D100080819181A281B38189839A83AB83BC83B3
:102D2000BC01CD010F900F900F900F90DF91CF91CC
:102D30000C9449168091AA0280FF02C086950895DE
:102D400080E00895CF93DF9300D000D0CDB7DEB7F9
:102D50009091AE02933018F49F5F9093AE02882357
:102D6000B1F08091AA029091AB02A091AC02B09117
:102D7000AD0289839A83AB83BC83BC01CD010F90E4
:102D80000F900F900F90DF91CF910C9449160F90F8
:102D90000F900F900F90DF91CF91089581E00C94E8
:102DA000A216CF93DF9300D000D0CDB7DEB79091BD
:102DB000AE02992319F091509093AE028823B1F09E
:102DC0008091AA029091AB02A091AC02B091AD02A9
:102DD00089839A83AB83BC83BC01CD010F900F9094
:102DE0000F900F90DF91CF910C9449160F900F9098
:102DF0000F900F90DF91CF91089581E00C94D11640
:102E00008091AE020895CF93DF9300D000D0CDB76C
:102E1000DEB78093AE026623B1F08091AA02909152
:102E2000AB02A091AC02B091AD0289839A83AB83CF
:102E3000BC83BC01CD010F900F900F900F90DF91DC
:102E4000CF910C9449160F900F900F900F90DF9137
:102E5000CF91089560E00C9403178091AB02089520
:102E60008091AC0208958091AD02089570E00C94B9
:102E7000251D60910E018091AA0280FF0AC08091F9
:102E80000D0123E0829FC001112481559D4F0C94B8
:102E9000361780910F019091100123E0829FF0017D
:102EA0001124E155FD4F891750F7118210821282CB
:102EB0008F5F3396F8CF9091AA0290FF14C0909143
:102EC0000F012091100133E0939FF0011124E1558F
:102ED000FD4F921710F00C94391781836083428361
:102EE0009F5F3396F6CF0895CF93DF9300D00F9274
:102EF000CDB7DEB79091AA0290FF0AC09E012F5F66
:102F00003F4F0E9427164B8169818A810E945B177F
:102F10000F900F900F90DF91CF910895CF93DF9393
:102F2000EC01EC81F0E0E058FE4F4491EAEAF2E077
:102F3000628181810E9474178C818F5F8C83DF9105
:102F4000CF910895CF93DF93EC01EAEAF2E0438159
:102F500062818C810E9474178C818F5F8C83DF91DA
:102F6000CF9108950F931F93CF93DF9300D00F92CB
:102F7000CDB7DEB78C018091620281110AC09E013B
:102F80002F5F3F4F4FEF6FEF0E9427168A8180938C
:102F90006202F8016481613049F06230F1F08091A1
:102FA000620240E0662331F040E019C060916202A5
:102FB00040E080E00E945B17F801848190E0019678
:102FC00063E070E00E945B2D84830F900F900F9060
:102FD000DF91CF911F910F9108954091620280E09F
:102FE00060E0E8CFAF92BF92CF92DF92EF92FF9274
:102FF0000F931F93CF93DF9300D000D000D00F9298
:10300000CDB7DEB7182FF62E042FD22E9091AA023C
:1030100090FF2BC0E92FE695AE2FB0E0AF56BE4F24
:103020008C9180936C029E7F923081F59E012F5F80
:103030003F4F812F0E9427164B8169818A810E9410
:103040005B171093AB02F092AC020093AD02DD204F
:1030500061F08091AA029091AB02A091AC02B09174
:10306000AD02BC01CD010E94491627960FB6F89417
:10307000DEBF0FBECDBFDF91CF911F910F91FF90AB
:10308000EF90DF90CF90BF90AF900895823019F409
:103090000091AD02D6CF863019F41091AB02D1CF9A
:1030A0008930D9F3893169F6E9518E2F8170C82EA4
:1030B000E695F0E0E058FD4FA590B490E12CBB24DC
:1030C00060911101E61618F00E943917BACF2E2D23
:1030D00030E0EA9CC001EB9C900D112470E00E944E
:1030E000472D812FC11013C0860F40910F01420F51
:1030F000532F511D9A01220F331F240F351F2155C5
:103100003D4F402F6F2D0E942716E394D9CF861B89
:10311000ECCF282FEAEAF2E0818143816281885F67
:103120000C94F21781E00C948918282FEAEAF2E057
:1031300081814381628188500C94F21781E00C9464
:103140009518282FEAEAF2E0628138E0630F08F46C
:103150006FEF438181810C94F21781E00C94A118E8
:10316000282FEAEAF2E0628138E0631B08F460E0AD
:10317000438181810C94F21781E00C94B018282FC0
:10318000EAEAF2E0438138E0430F08F44FEF62814E
:1031900081810C94F21781E00C94BF18282FEAEA81
:1031A000F2E0438138E0431B08F440E06281818112
:1031B0000C94F21781E00C94CE1820E00C94F217D6
:1031C000EF92FF921F93CF93DF93EC0110E0EE2478
:1031D000EA94F12C60911101161770F00E943917D2
:1031E0009A818C8190FF27C08F5F8C83DF91CF9174
:1031F0001F91FF90EF90089520910F01422F410FF2
:103200005527551FCA019A01220F331F280F391F56
:1032100021553D4F70E0C7010E945B2D962F8C8198
:103220004091AD026091AC02199F800D11240E9463
:1032300027161F5FCFCF8150D8CFBF92CF92DF929A
:10324000EF92FF920F931F93CF93DF93FC01828144
:103250000FEF80FF01E010E0809111011817C0F01E
:103260000E94391780916402013009F054C0811125
:1032700002C080911101815080936402DF91CF914F
:103280001F910F91FF90EF90DF90CF90BF90089526
:10329000C0910F01C12ED12CCC0DDD2DD11DCE0141
:1032A000880F991FC80FD91FC155DD4F1982188289
:1032B0001A8234E0E32EF12CB12C809164028B0D44
:1032C00088301CF167E00E94392D892F082E000CF0
:1032D000990BC816D90691F48091AD028E9DA0017C
:1032E0008F9D500D112455954795559547959E01F5
:1032F0006091AC028091AB020E942716B00EF1E003
:10330000EF1AF108D1F61F5FA7CF87FFDFCF9091AB
:103310001101890FDBCF90E001966091110170E0FF
:103320000E945B2DA9CF0F931F93CF93DF938091C2
:103330000F019091100123E0829FF0011124E155CB
:10334000FD4F891740F1C0E0D3E060911101C6172D
:1033500040F10E94391720910B0180916302820F86
:103360008093630290910C01920F90930C011916B7
:1033700054F4082E000C990B409111014150550B4B
:10338000841795071CF0219520930B01DF91CF91B5
:103390001F910F9108951182108212828F5F3396D0
:1033A000D0CF0C2F10E070E0C8010E945B2D20915F
:1033B0000F01820F482F50E020916302022E000C73
:1033C000330B02171307BCF020910C01022E000CE6
:1033D000330B201731077CF08D9F9001112421556C
:1033E0003D4F4091AD026091AC028091AB020E94D2
:1033F0002716CF5FAACFFA01EE0FFF1FE40FF51FCC
:10340000E155FD4F118210821282F3CFEF92FF92AD
:103410000F931F93CF93DF93CDB7DEB72E970FB6E1
:10342000F894DEBF0FBECDBF8D879E87AD85BE856C
:1034300014961C91212F30E0D9010E94A62D9B01EA
:10344000AC010E94BC2D69837A838B839C83E0E26C
:10345000F0E0E11BF109A5E5B0E09B01AC010E94A1
:10346000BC2D69877A878B879C879F01DF010E942B
:103470009E2D6D837E838F8398879B01AC010E9474
:10348000C72D9B01AC0169817A818B819C81260FBC
:10349000371F481F591F69857A858B859C850E9437
:1034A0006F2DF22E822F90E079E2721788F183E07F
:1034B000289F9001112435952795122F109500E033
:1034C00085E5E82EEF1880911101081780F10E9420
:1034D0003917AD85BE8514969C9181E0992319F02A
:1034E000903219F48FEF80930A0180910A01890FBD
:1034F000ED85FE8584832E960FB6F894DEBF0FBE51
:10350000CDBFDF91CF911F910F91FF90EF90089564
:1035100025E530E0D901A81BB90B9D01220F331F0F
:103520002A0F3B1F37FFC7CF2F5F3F4FC4CF8E2DD2
:1035300001FD8F2D20910F01E22FE00FFF27FF1FCC
:103540009F01220F331F2E0F3F1F21553D4F412F4B
:103550006091AC020E9427160F5FB5CF0F931F93A7
:10356000CF93DF93EC0110E000E0909111019017F0
:10357000110609F06CF40E9439178C8190E00196D5
:10358000817099278C83DF91CF911F910F910895BE
:1035900020910F01A801420F511D9A01220F331FE4
:1035A000240F351F21553D4F4C816091AC02809115
:1035B000AB0296959017110651F04CF0442349F058
:1035C0004091AD020E9427160F5F1F4FCECF4423BC
:1035D000B9F340E0F7CFCF93DF9300D000D0CDB761
:1035E000DEB7EAEAF2E080818E7F8083808191817C
:1035F000A281B38189839A83AB83BC83BC01CD0153
:103600000E94491610926D029FEFA0E7B2E0915020
:10361000A040B040E1F700C000000F900F900F9065
:103620000F90DF91CF910C943917EAEAF2E0808194
:103630008E7F808310926D022FEF80E792E0215001
:1036400080409040E1F700C000000C943917609171
:10365000AA02669570E04BE050E082E191E00E94A2
:10366000DB2D892B19F481E080936D020E944C259B
:1036700090936602809365020895CF93DF9300D004
:1036800000D0CDB7DEB79091AA0290FF41C09170F3
:10369000811134C092609093AA02662381F08091D8
:1036A000AA029091AB02A091AC02B091AD028983C5
:1036B0009A83AB83BC83BC01CD010E944916609103
:1036C000AA02669570E04BE050E082E191E00E9432
:1036D000DB2D892BD1F010926D0281E0809368027E
:1036E0004091AD026091AC028091AB020F900F90BF
:1036F0000F900F90DF91CF910C94DD18853210F070
:103700009864C9CF880F982BC6CF0E94271BE5CF9E
:103710000F900F900F900F90DF91CF910895682F29
:103720008091AA0286958F5F853208F081E00C9423
:103730003D1B81E00C948F1B682F9091AA029695F7
:103740008FEF890F913009F484E20C943D1B81E0E6
:103750000C949C1B61E00C943D1BEAEAF2E0808132
:103760008160808386950C94AA1B8091AA0280FDBB
:103770000C94EB1A0C94AD1B60E00C943D1B8091F3
:103780006B0281112EC00E940C0E811104C00E9498
:10379000B00E0E9479160E9445166093AA0270939B
:1037A000AB028093AC029093AD026E7F61F40E94F5
:1037B00079160E9445166093AA027093AB0280931B
:1037C000AC029093AD020E94361610926D02809169
:1037D000AA0280FF03C086950E94BC1B81E08093F3
:1037E0006B020895EAEAF2E0808181608083869529
:1037F0000C94BC1B0F931F93CF93DF9380916D02AA
:10380000882309F486C080916C02E091AA02E695B3
:10381000E81BE0936702823091F5F0E0E458FE4F38
:10382000E491CE2FD0E00EE817E180916802882362
:1038300061F0109268020E944C259093660280937A
:10384000650210926A02109269020E944C25E09172
:103850006502F09166028E1B9F0B8F3F9F4708F019
:1038600058C0EC0FFD1FF0936602E093650285E6F9
:1038700092E0F801DF91CF911F910F91099486306A
:1038800049F4F0E0E758FE4FE491CE2FD0E002EA91
:1038900017E1CBCF893051F4E695F0E0EA58FE4FBE
:1038A000E491CE2FD0E000EE18E1BFCF8F3051F47D
:1038B000E695F0E0ED58FE4FE491CE2FD0E00DE11B
:1038C00019E1B3CF853149F4F0E0E059FE4FE491BE
:1038D000CE2FD0E003E919E1A8CFC8E2D0E006E09E
:1038E0001AE1883109F4A1CF833239F4EEE6F1E030
:1038F000C591D49102EB17E198CFC4EFD1E00EEA65
:103900001AE1843209F491CFC0EDD7E004E216E168
:103910008CCFDF91CF911F910F910895FA01811102
:103920000994FB01FDCFCF93DF93C82FD62F0E94C0
:103930009A168C1740F00E949A168D1720F4DF918A
:10394000CF910C94991B8C2FDF91CF910C94AA1BD3
:103950000F931F93CF938C01FB01C281CC2309F4F9
:1039600072C00E94460D8272063DFCE51F0770F48E
:10397000023C9CE5190778F0F801E35CFC45E33173
:10398000F10570F4E15BF14D0C94912DC1E00D3522
:103990001D4509F4C0E08C2FCF911F910F91089520
:1039A0000E94B51BF7CF47EA5BE169E97BE10E9422
:1039B0008E1CF0CF49E95BE167EA7BE1F8CF4EE985
:1039C00058E162E978E1F3CF42E958E16EE978E144
:1039D000EECF4CEB58E16DEA78E1E9CF4DEA58E1E2
:1039E0006CEB78E1E4CF4AED58E16BEC78E1DFCFA6
:1039F0004BEC58E16AED78E1DACF4DEF56E16EEC31
:103A000076E1D5CF4EEC56E16DEF76E1D0CF81E097
:103A10000E94AA1BBFCF65E082E00E94931CBACF30
:103A200068E086E0FACF6EE089E0F7CF64E18FE0EE
:103A3000F4CF67E185E1F1CF88E1EACF62E289E185
:103A4000ECCF83E2E5CFC1E0A6CF9C01AB01219A88
:103A500065B16D7F75B17260EFB7F894CA01880FD8
:103A6000991F840F951F820F931F8217930741F4AC
:103A7000EFBF8FE594E00197F1F700C000000895D3
:103A8000D9014D919D0158E075B9000000C047FF74
:103A900065B9440F000000C000C000C065B900C097
:103AA0005A9591F7E2CF0C94E902AF92BF92CF9270
:103AB000DF92EF92FF920F931F93CF93DF93A8ECC7
:103AC000B1E026EC31E082E7A82E82E0B82E6AEC65
:103AD00071E041E050E00D91802F82958F7090E071
:103AE000FC01C1A10F707A01002E01C0EE0C0A94F6
:103AF000EAF7FE2DF095CF23FC01C1A3C2A1CE2988
:103B0000C2A3E90119919E01E12FE295EF70F0E067
:103B1000F1A01F706A01012E01C0CC0C0A94EAF7D3
:103B2000EC2CE094EF20E1A2F2A0FC28F2A2EC0140
:103B300088A190E002C0959587950A95E2F781707B
:103B4000E0A1F0E002C0F595E7951A95E2F790E064
:103B5000E0FD92E0892BF50181935F016A177B07F5
:103B600009F0B9CFDF91CF911F910F91FF90EF90A6
:103B7000DF90CF90BF90AF9008954F925F926F9279
:103B80007F928F929F92AF92BF92CF92DF92EF92ED
:103B9000FF920F931F93CF93DF9302E712E088EC1D
:103BA000C82E81E0D82E96ECE92E91E0F92EC0E7E0
:103BB000D2E02EE6822E22E0922E512C412C32E0D1
:103BC000A32EB12CD801ED918D016E2F660F660FDB
:103BD0006E93F60121916F01822F82958F7090E094
:103BE000FC0180A190E02F7002C0959587952A95E1
:103BF000E2F781709927F70141917F01242F2295E7
:103C00002F7030E0F90120A130E04F7002C03595EF
:103C100027954A95E2F7A9014170552720FF02C078
:103C200042E050E0842BE62FE82BEC933E01EF704E
:103C3000F0E0EA54FE4F80819881890F888320E06C
:103C400082304CF0D4018C918F5F8C9360E0852D95
:103C50000E94531D21E088818F3F4CF4F401808144
:103C60008150808361E0852D0E94531D21E02196C3
:103C7000FE013197D3018C91082E000C990BB501F0
:103C80000E945B2D8083422ABFEF8B1A9B0AE1E0E2
:103C90005E1212C0842DDF91CF911F910F91FF9082
:103CA000EF90DF90CF90BF90AF909F908F907F90DC
:103CB0006F905F904F9008955524539483CF83E283
:103CC00090E00E94F52D823289F484E290E00E9417
:103CD000F52D823059F485E290E00E94F52D91E0B7
:103CE000883009F090E0892F8170089580E0FCCF42
:103CF000CF93C82F6FEF811162E283E290E00E94C0
:103D0000092E6FEFC11162E084E290E00E94092E5B
:103D10006FEFC11168E085E290E0CF910C94092E1D
:103D20000895CF93DF9300D000D0CDB7DEB786E201
:103D300090E00E94F52D282F30E050E040E0CA01CD
:103D4000B9010F900F900F900F90DF91CF910895D0
:103D500086E290E00C94092E80E00E94781E60E0DC
:103D600070E0CB010E94A81E0E94A0200E94792131
:103D700081E00C94781E0E94901E0E945F1E8111AB
:103D800002C00C94AC1E0895CF939C01FB01C2812C
:103D9000CC2301F182519F45409720F58EEE820F92
:103DA0000E948921C0E08C2FCF91089581E00E946C
:103DB000EE0843E062E081E00E946903F3CF81E016
:103DC0000E94F90843E062E081E00E946903EBCFC2
:103DD00082E0F6CF80319F4591F321313F45C1F319
:103DE000C1E0E1CF2031EFE53E0701F382E0213170
:103DF0003F45E9F2D8CF2FEFFC0120830895CF9300
:103E0000DF93EC0188818238C1F038F4803871F09A
:103E1000813881F0DF91CF9108958338D9F70E94DE
:103E20002D1789830E9430178A83F4CF0E9433179D
:103E30008983F0CF0E949A16FBCF0E940017F8CF1B
:103E4000CF93DF93EC018881823851F138F48038C8
:103E500069F08138B9F0DF91CF9108958338D9F7AF
:103E60000E943317482F6A81898108C0D9810E9436
:103E70003017C82F0E942D174D2F6C2FDF91CF9137
:103E80000C94DD1889810E94BC1B8981811104C0BA
:103E9000DF91CF910C94151BDF91CF910C94F21B05
:103EA0008981DF91CF910C942A171F93CF93DF93D1
:103EB000CDB7DEB72E970FB6F894DEBF0FBECDBFDD
:103EC0008D839E83162F8D819E81DC01ED91CD0126
:103ED000E150E33108F0F0C0F0E0EE59F14D0C9400
:103EE000912DED81FE81118289E08283612F8D8188
:103EF0009E812E960FB6F894DEBF0FBECDBFDF9128
:103F0000CF911F910C946B26AD81BE8111968C913F
:103F1000823099F0833011F1813059F50E94582593
:103F20000E94972D6F83788789879A87ED81FE811C
:103F30006283738384839583D9CF0E94911E0E94EC
:103F4000972D6B877C878D879E87AD81BE8112966A
:103F50006D937D938D939C931597C8CF80E00E94BD
:103F6000DE11982789279827ED81FE81938382832C
:103F7000BDCF612F8D819E810E94FB1EB7CFAD8189
:103F8000BE8111968C911197823099F712968D917E
:103F90009D910D90BC91A02D89839A83AB83BC83A6
:103FA000BC01CD010E94972D0E94A81E9FCFED81DC
:103FB000FE814381628181810E9472209827892736
:103FC0009827AD81BE8115969C938E9314978ECFC2
:103FD000ED81FE81248135813227232732274381D9
:103FE000628181810E948B2081CF0E94A0207ECFA0
:103FF0000E94201F7BCF0E94FF1E78CF0E945D167B
:1040000075CF0E942221AD81BE8111968C936ECF17
:104010000E942421982789279827ED81FE81928389
:10402000818364CFAD81BE8113966C91139770E04C
:1040300011968D919C911297AD014C5F5F4F98271F
:10404000892798270E94272151CFED81FE81638126
:1040500070E081819281AF014C5F5F4F9827892783
:1040600098270E944E2142CF0E9479213FCF0E9483
:104070006120C9CFED81FE81638170E081819281F1
:10408000AF014C5F5F4F9827892798270E94C72070
:104090002DCFAD81BE8113966C91139770E0119670
:1040A0008D919C911297AD014C5F5F4F98278927A6
:1040B00098270E94EC201ACF8FEFED81FE8180833C
:1040C00015CF84E0089592E150E0440F551F699F99
:1040D000400D511D1124899F400D511D1124CA010D
:1040E000879608950F931F93CF93DF930E946320C9
:1040F0008C010E94F52DC82FD0E0DC2FCC27C80101
:1041000001960E94F52D9E01282BC901DF91CF91C8
:104110001F910F9108950F931F93CF93DF93122F49
:10412000032F0E946320EC01602F0E94092E612F53
:10413000CE010196DF91CF911F910F910C94092E22
:10414000EF92FF920F931F93CF93DF938CEAE82EA9
:1041500080E0F82ED0E08701C0E0F801259134918D
:104160004C2F60E08D2F0E948B200E5F1F4FCF5F82
:10417000C93099F782E1E80EF11CDF5FD43059F7BE
:10418000DF91CF911F910F91FF90EF900895EF92E3
:10419000FF920F931F93CF93DF93EC018A017C0171
:1041A000E60EF71ECE018796CE15DF0539F4DF91B6
:1041B000CF911F910F91FF90EF900895C834D105D2
:1041C00040F40E94F52DF80180830F5F1F4F219668
:1041D000E9CFF8011082F9CFCF92DF92EF92FF92F0
:1041E0000F931F93CF93DF938C016A017C01E60E3E
:1041F000F71EEC01CE018796CE15DF0549F4DF915D
:10420000CF911F910F91FF90EF90DF90CF90089585
:10421000C834D10540F4FE01E01BF10BEC0DFD1D8F
:1042200060810E94092E2196E5CF462F843038F414
:10423000711105C0693018F460E00C94722090E0B0
:1042400080E0089580E1089581E993E00895EF9278
:10425000FF920F931F93CF93DF93EC018A017C01B0
:10426000E60EF71ECE0181599F4FCE15DF0539F4BA
:10427000DF91CF911F910F91FF90EF900895C13979
:1042800023E0D20740F40E94F52DF80180830F5FF0
:104290001F4F2196E7CFF8011082F9CFCF92DF921E
:1042A000EF92FF920F931F93CF93DF938C016A01DC
:1042B0007C01E60EF71EEC01CE0181599F4FCE1511
:1042C000DF0549F4DF91CF911F910F91FF90EF909F
:1042D000DF90CF900895C13923E0D20740F4FE016A
:1042E000E01BF10BEC0DFD1D60810E94092E219653
:1042F000E3CFCF93DF93CFE6D0E060E0CE010E9422
:10430000092E2196C11584E0D807B9F7DF91CF9126
:104310000895DF92EF92FF920F931F93CF93DF9355
:1043200000D000D0CDB7DEB7F82E8FE08F1540F06B
:104330008FEF93E00E94F52D0FE610E08823C1F087
:104340000F900F900F900F90DF91CF911F910F91D1
:10435000FF90EF90DF900895011584E0180781F336
:10436000C8010E94F52D811101C0FA940F5F1F4F03
:10437000F110F2CF8091280190912901A0912A019A
:10438000B0912B0189839A83AB83BC83DD24D394C2
:1043900078018FEFE81AF80AC8010E94F52D898389
:1043A0001A82882369F29FEF980F933080F48A83F2
:1043B000D9820E5F1F4FC7010E94F52D8B83882382
:1043C00009F4BECFCE0101960E94B704E1CF870168
:1043D000F9CF0F931F93CF93DF93C42FD22FFC01FC
:1043E00082818823C9F0409376020E944C259093E5
:1043F00075028093740280E28C0F883008F050C000
:10440000C77081E001C0880FCA95EAF7DF91CF91AC
:104410001F910F910C94110610917602141335C060
:1044200080917402909175020E947825883C9105D4
:1044300060F5C0E2CD0F1D17B9F080E2810F883022
:1044400040F4177081E001C0880F1A95EAF70E94C6
:104450001806C83048F481E09D2F977001C0880F7E
:104460009A95EAF70E941106802F0E940906C8302B
:10447000B8F4D77081E001C0880FDA95EAF7DF91D0
:10448000CF911F910F910C94180680E28C0F883009
:1044900038F4C77081E001C0880FCA95EAF7EFCF02
:1044A000DF91CF911F910F9108950F939C01CB0144
:1044B000233F4CE53407A1F190F4283DFCE53F078C
:1044C00049F1293D4CE53407E9F1273D3C45C1F070
:1044D000FC0182818823E1F11092760219C0253F08
:1044E000FCE53F0719F1263F4CE5340729F1243F4D
:1044F0003C4571F707E225EE44EE64EF7CE505C02C
:1045000006E221EE41EE67ED7CE50E94E92180E0C4
:104510000F91089507E225EE45EE68ED7CE5F5CFB5
:1045200006E221EE40EE63EF7CE5EFCF06E221EEFE
:1045300042EE65EF7CE5E9CF07E225EE46EE66EF59
:104540007CE5E3CF08E221E045EE69ED7CE5DDCFD7
:1045500081E0DECFCF93DF93EC01FB0182818823E2
:1045600009F4C9C0C631FCE5DF07E0F4C2309CE5C0
:10457000D907F0F00E941F0E9093A5028093A40229
:10458000C631ECE5DE0720F5C230FCE5DF0798F424
:104590008091A4029091A5020E942D0E0E946B08AA
:1045A00080E006C09E012A5F3C452930310510F3AA
:1045B000DF91CF910895FE01E350FC458091A40264
:1045C0008160E331F10588F4EB58F14D0C94912DA5
:1045D000CA5FDC45C930D105D8F6C857D14DFE01B8
:1045E0000C94912D8091A40282608093A402D0CF7C
:1045F0008091A4028460F9CF8091A4028860F5CFF5
:104600008091A50281608093A502C2CF8091A5020E
:104610008260F9CF8091A4028061E7CF8091A402EB
:104620008062E3CF8091A4028064DFCF0E946B0898
:104630008091A4028068D9CF8091A4028C60D5CFEC
:104640008091A5028360DFCF8091A4028E7FCDCFC1
:104650008091A4028D7FC9CF8091A4028B7FC5CFAA
:104660008091A402877FC1CF8091A5028E7FCBCF9E
:104670008091A5028D7FC7CF8091A4028F7EB5CF98
:104680008091A4028F7DB1CF8091A4028F7BADCFAA
:104690000E946B088091A4028F77A7CF8091A4021B
:1046A000837FA3CF8091A5028C7FADCF8091A402A0
:1046B00082FB992790F921E0922790FB82F990FBE9
:1046C00083F993CF8091A502982F909591708E7F5A
:1046D000892B90FB81F997CF0E946B089091A402DF
:1046E000892F97FB87F9805880CF81E00E94B20E16
:1046F0004FCF80E0FBCF81E05BCFCF93DF93EB0127
:1047000086319C4511F50E94460D9A81992399F0B6
:104710008A7A91E009F490E090937702811109C0C0
:1047200089E20E94000D0E94990D80E0DF91CF91F7
:10473000089585E3F6CF80917702811104C089E264
:104740000E94070DF0CF85E3FBCF81E0EFCF909380
:104750007D0280937C020895E0917C02F0917D02BD
:10476000309721F00190F081E02D099480E00895C8
:10477000DC01E0917C02F0917D02309799F080910C
:104780002701882351F08091A40287FF06C08C91F5
:1047900011968C93119785E08C930280F381E02D24
:1047A000CD0109940895DC01E0917C02F0917D0235
:1047B000309739F082E08C930480F581E02DCD01B3
:1047C0000994089520917A0230917B0228173907C5
:1047D00071F090937B0280937A02E0917C02F091D9
:1047E0007D02309721F00680F781E02D099408952D
:1047F00020917802309179022817390771F090934F
:10480000790280937802E0917C02F0917D023097EA
:1048100021F00084F185E02D09940895FC01329681
:1048200080912701882321F08091A4029EE187FFD7
:1048300096E080E0915008F4089521912223D1F36D
:104840008F5FF8CF9C01662301F1809127018823B7
:10485000F1F08091A40287FF1AC0462F4695469535
:104860004695603F90F4677081E090E002C0880F49
:10487000991F6A95E2F7240F311DF901228130E07A
:104880002823392381E0232B71F480E00895F90176
:104890003296285F3F4F8191861721F0E217F30788
:1048A000D1F7F3CF81E008959C01FC0132968FEFA0
:1048B00090E04191461751F08F3F19F4411101C02A
:1048C000892F9F5F9630A9F78F3F09F40895280F2D
:1048D000311D87FD3A95F901628308959C01FC0121
:1048E0003296285F3F4F8191861303C0DF011197F5
:1048F0001C92E217F307B9F70895E62FE695E695BF
:10490000E695603F68F4E80FF92FF11D677021E02C
:1049100030E001C0220F6A95EAF78281822B828300
:104920000895E62FE695E695E695603F70F4E80F6A
:10493000F92FF11D677081E090E001C0880F6A9542
:10494000EAF7809592818923828308952091270137
:10495000222329F02091A40227FD0C947D240C949D
:10496000542420912701222329F02091A40227FD1D
:104970000C9491240C946E24FC01329680912701B2
:10498000882351F08091A40287FF06C08EE1DF01E9
:104990001D928A95E9F7089586E0F9CF0895089564
:1049A00008950C94D0248091CC02843049F10E9467
:1049B000D12480E00E94C10410927E0288E190E040
:1049C00020E40FB6F894A895809360000FBE209362
:1049D000600083B7817F846083BF83B7816083BFBA
:1049E0007894889583B78E7F83BF0FB6F894A89587
:1049F00080916000886180936000109260000FBE1B
:104A0000089508950E94CF240E947D120E940125DE
:104A100080E00E94DE119C0181E0232B09F480E0FC
:104A2000089508950C9411250E946B080E94AC23F0
:104A30000E94C1040C9412251F921FB61F921124CC
:104A40008F939F93AF93BF9380917E02811113C088
:104A50008091C4029091C502A091C602B091C70294
:104A60004196A11DB11D8093C4029093C502A093ED
:104A7000C602B093C702BF91AF919F918F911F90D3
:104A80001FBE1F90189582E084BD93E095BD9AEFFC
:104A900097BD80936E0008952FB7F8948091C4025B
:104AA0009091C502A091C602B091C7022FBF089590
:104AB000CF93DF9300D000D0CDB7DEB78FB7F89497
:104AC0002091C4023091C5024091C6025091C702A4
:104AD00029833A834B835C838FBF69817A818B8181
:104AE0009C810F900F900F900F90DF91CF910895C0
:104AF0009C014FB7F8948091C4029091C502A09197
:104B0000C602B091C7024FBF821B930B08957894E1
:104B10001F921FB61F9211248F939F93AF93BF9341
:104B20008091C4029091C502A091C602B091C702C3
:104B30000196A11DB11D8093C4029093C502A0935C
:104B4000C602B093C702BF91AF919F918F911F9002
:104B50001FBE1F90189581E08093E00080E2809353
:104B6000D8001092C9008FE19EE40197F1F700C0D0
:104B7000000087E090EBDC018093D5029093D60291
:104B8000A093D702B093D80288E19CE00FB6F894C6
:104B9000A895809360000FBE90936000FFCF909324
:104BA000DB018093DA0108958091A202089590912B
:104BB000CC02943029F580937F0260938002709339
:104BC00081029093E9008FEF9091E800815095FD6C
:104BD00006C095ED9A95F1F700008111F5CF80910F
:104BE000E80085FF0DC050E040E063E070E08FE733
:104BF00092E00E9462288091E8008E778093E8001E
:104C00000895BC0184E00C94D725BC0183E00C948A
:104C1000D72524E02093E9002FEF3091E8002150C0
:104C200035FD06C035ED3A95F1F700002111F5CFBD
:104C30002091E80025FF0BC050E040E066E070E006
:104C40000E9462288091E8008E778093E8000895A2
:104C5000CF93DF93D82FC92F809127018823C1F1EB
:104C60008091A40287FF34C060E284E08093E90071
:104C70008FEF9091E800815095FD06C095ED9A95D3
:104C8000F1F700008111F5CF8091E80085FF1DC08C
:104C90008091270170E050E040E0811104C050E0B5
:104CA00040E068E070E08D2F9C2F0E946228809188
:104CB000E8008E778093E80080E2ED2FFC2FA2E8D9
:104CC000B2E001900D928A95E1F7DF91CF910895BE
:104CD00068E081E0CBCFCF93603219F52091CC0210
:104CE0002430F9F4C091E900CF703091EC00232F0B
:104CF000217030FD20E8C22B22E02093E9002091B2
:104D0000E80020FF0BC050E040E060E270E00E944D
:104D100062288091E8008E778093E800CF70C0937E
:104D2000E900CF9108958091CB02811109C00E94C2
:104D3000392A0E94962A8091E20084608093E200E2
:104D400008951092CB02089508950895089542E0C1
:104D500061EC81E00E94B52942E261EC84E00E94AE
:104D6000B52942E261EC82E00E94B52942E260ECA2
:104D700083E00C94B5298091CE02893089F148F402
:104D8000823009F49EC0833009F459C0813041F06B
:104D900008958A3009F485C08B3009F46BC00895FA
:104DA0008091CD02813A09F049C08091E800877F67
:104DB0008093E8008091D1029091D202892B61F416
:104DC00060E282E892E070E00E9400298091E800B1
:104DD0008B778093E800089560E090E080E0F3CF67
:104DE0008091CD02813251F58091D1029091D20211
:104DF0008D7F892B19F58091E800877F8093E800EB
:104E00008091E80082FF16C09091F3008091F2003B
:104E1000029729F48091F1008B7F813021F48091F9
:104E2000F1008093A2028091E8008B778093E800E4
:104E30000C94E9298091CC028111E2CF08958091F0
:104E4000CD02813AD9F78091D1029091D202892B7B
:104E5000A9F78091E800877F8093E8008091E800BF
:104E600080FFFCCF809127018093F1008091E800C2
:104E70008E77DCCF8091CD02813201F78091D10213
:104E80009091D202892BD1F68091E800877F8093A0
:104E9000E8000E94E9298091CF02809327010C94B9
:104EA0006B088091CD02813249F68091E800877FBE
:104EB0008093E8000E94E9298091D0028093A302A8
:104EC00008958091CD02813A09F0B8CF8091E80031
:104ED000877F8093E8008091E80080FFFCCF80917D
:104EE000A302C2CF84B7877F84BF0FB6F894A8957A
:104EF00080916000886180936000109260000FBE16
:104F000080E890E00FB6F894809361009093610080
:104F10000FBE0C94EB0E0E94392A0E94962AE2EEF4
:104F2000F0E080818460808378940E941E2D0E942E
:104F3000FF0E8DE191E00C94A723CF93DF93CDB7C3
:104F4000DEB7A0970FB6F894DEBF0FBECDBF80913D
:104F5000CC02853031F48091CC02853091F10E94F1
:104F600014250E940B0F8091CC02843009F583E058
:104F70008093E9008091E80082FF1AC08091E800E8
:104F800090E085FF09C050E040E060E270E0CE01B3
:104F900001960E94B12891E08091E8008B77809380
:104FA000E800992329F060E2CE0101960E94551F86
:104FB000A0960FB6F894DEBF0FBECDBFDF91CF91A4
:104FC00008950E94D3248091CA02882321F20E946E
:104FD0000225882309F4BFCF0E944C280E946B0849
:104FE000BACF0C94F327FC01CB01DA012F2F332722
:104FF00023303105D1F070F42130310509F447C078
:105000002230310569F48BE590E021EB33E02D93FC
:105010003C93089521323105E9F02232310539F10E
:1050200090E080E030E020E0F2CFCF019927E1303E
:1050300059F08230910559F0EDEAF3E0892B81F7C0
:10504000849190E09F01E3CFE9E9F3E0F9CFE5E84F
:10505000F3E0F6CF6330710518F7880F991FFC0154
:10506000ED52FE4F2081318189E090E0D0CF633056
:105070007105B0F6FB01EE0FFF1FE353FE4F2081D9
:10508000318186539E4FFC01808190E0C0CF82E148
:1050900090E02CE034E0BBCF80E189BD82E189BDA6
:1050A00009B400FEFDCF8091D8008F7D8093D80099
:1050B0008091E00082608093E0008091E00081FDBB
:1050C000FCCF0895AF92BF92CF92DF92FF920F93E1
:1050D0001F93CF93DF936C01EB018A010E94082A92
:1050E000F82E811123C00115110539F0F8018081D6
:1050F0009181C81BD90BC80ED91EB12CA12C2097A9
:10510000A9F08091E80085FD22C08091E8008E77AB
:105110008093E80001151105A1F0F80180819181CB
:10512000A80EB91EB182A08285E0F82E8F2DDF91E6
:10513000CF911F910F91FF90DF90CF90BF90AF90D4
:1051400008950E94082A8823D1F2F82EEFCFF601A5
:1051500081916F018093F1002197FFEFAF1ABF0A91
:10516000CECFAF92BF92CF92DF92FF920F931F9359
:10517000CF93DF936C01EB018A010E94082AF82E7D
:10518000811123C00115110539F0F8018081918149
:10519000C81BD90BC80ED91EB12CA12C2097A9F081
:1051A0008091E80085FD22C08091E8008B77809394
:1051B000E80001151105A1F0F80180819181A80E88
:1051C000B91EB182A08285E0F82E8F2DDF91CF919C
:1051D0001F910F91FF90DF90CF90BF90AF900895F7
:1051E0000E94082A8823D1F2F82EEFCF8091F10097
:1051F000F60181936F012197FFEFAF1ABF0ACECF5F
:10520000FC01CB012091D3023091D402261737073D
:1052100090F0009729F42091E8002E772093E80081
:1052200040E0009751F4411108C08091E80082FFEE
:1052300031C080E00895C901F3CF2091CC02222330
:10524000A9F12530A9F12091E80023FD2DC020917E
:10525000E80022FDEACF2091E80020FFE2CF309164
:10526000F3002091F200009719F02830310558F032
:1052700041E02830310509F040E02091E8002E7728
:105280002093E800CECF41914093F10001972F5F2A
:105290003F4FE9CF8091CC02882341F0853041F027
:1052A0008091E80083FFC1CF81E0089582E00895F6
:1052B00083E00895FC01CB012091D3023091D40208
:1052C0002617370790F0009729F42091E8002E77F1
:1052D0002093E80040E0009751F4411108C080910C
:1052E000E80082FF32C080E00895C901F3CF209129
:1052F000CC022223B1F12530B1F12091E80023FD49
:105300002EC02091E80022FDEACF2091E80020FF86
:10531000E2CF3091F3002091F200009719F028308D
:10532000310558F041E02830310509F040E0209186
:10533000E8002E772093E800CECF44914093F1000F
:10534000319601972F5F3F4FE8CF8091CC028823A1
:1053500041F0853041F08091E80083FFC0CF81E0CB
:10536000089582E0089583E00895982F973028F0FB
:105370008F708093E90081E008959093E900242FD5
:10538000762F50E0981731F07091EC002091ED00ED
:105390005091F00021FD02C09F5FE8CF3091EB00FB
:1053A0003E7F3093EB003091ED003D7F3093ED0078
:1053B0003091EB0031603093EB007093EC00209360
:1053C000ED005093F0002091EE0027FDE5CF80E046
:1053D00008958091CD0287FF13C08091E80082FF7D
:1053E00006C08091E8008B778093E80004C080912C
:1053F000CC028111F2CF08958091CC028823D9F399
:105400008091E80080FFF8CF8091E8008E77ECCFA4
:105410002091E4003091E50095E6A9012091EC008F
:10542000822F817020FF06C08091E80080FF06C0B7
:1054300080E008952091E80022FD1AC08091CC02FE
:10544000882389F0853089F08091EB0085FD0FC0BD
:105450002091E4003091E50042175307F9F2915092
:10546000E1F684E0089582E0089583E0089581E004
:1054700008950E94A72A0E94AF2AE0EEF0E0808102
:1054800081608083E8EDF0E080818F77808319BCB4
:10549000A7EDB0E08C918E7F8C9380818F7E80838E
:1054A0001092CB0208950F931F93CF93DF930E9426
:1054B000A72A0E94AF2AC8EDD0E088818F77888321
:1054C00088818068888388818F7D888319BC109249
:1054D000CC021092C8021092CA021092C90200EEC9
:1054E00010E0F80180818B7F8083888181608883D0
:1054F00042E060E080E00E94B529E1EEF0E08081CA
:105500008E7F8083E2EEF0E0808181608083808105
:1055100088608083F80180818E7F808388818061AC
:105520008883DF91CF911F910F910895E8EDF0E00E
:1055300080818F7E8083E7EDF0E0808181608083D1
:1055400084E082BF81E08093CB020C94532AE8ED83
:10555000F0E080818E7F80831092E20008951092A7
:10556000DA001092E10008951F920F920FB60F9289
:1055700011242F933F934F935F936F937F938F9358
:105580009F93AF93BF93EF93FF938091E10082FFCE
:105590000BC08091E20082FF07C08091E1008B7F09
:1055A0008093E1000E941D2D8091DA0080FF19C0D8
:1055B0008091D80080FF15C08091DA008E7F8093A3
:1055C000DA008091D90080FF94C080E189BD82E13A
:1055D00089BD09B400FEFDCF81E08093CC020E941A
:1055E00093268091E10080FF19C08091E20080FF46
:1055F00015C08091E2008E7F8093E2008091E200EE
:1056000080618093E2008091D80080628093D8000E
:1056100019BC85E08093CC020E94A5268091E10010
:1056200084FF29C08091E20084FF25C080E189BD0C
:1056300082E189BD09B400FEFDCF8091D8008F7D45
:105640008093D8008091E1008F7E8093E10080916B
:10565000E2008F7E8093E2008091E200816080937F
:10566000E2008091C802882309F449C084E0809355
:10567000CC020E94A6268091E10083FF29C0809180
:10568000E20083FF25C08091E100877F8093E100E5
:1056900082E08093CC021092C8028091E1008E7F5C
:1056A0008093E1008091E2008E7F8093E200809100
:1056B000E20080618093E20042E060E080E00E94CE
:1056C000B5298091F00088608093F0000E94A426A4
:1056D000FF91EF91BF91AF919F918F917F916F91CA
:1056E0005F914F913F912F910F900FBE0F901F90A0
:1056F000189519BC1092CC020E94A12672CF8091FD
:10570000E30087FD02C081E0B2CF83E0B0CF1F92FB
:105710000F920FB60F9211242F933F934F935F93E5
:105720006F937F938F939F93AF93BF93CF93DF93A9
:10573000EF93FF93D091E900DF708091EC00C82FC8
:10574000C17080FDC0E81092E9008091F000877F71
:105750008093F00078940E94CB2B1092E900809106
:10576000F00088608093F000CD2BCF70C093E900EB
:10577000FF91EF91DF91CF91BF91AF919F918F9169
:105780007F916F915F914F913F912F910F900FBE3D
:105790000F901F9018951F93CF93DF93CDB7DEB76F
:1057A000AA970FB6F894DEBF0FBECDBF8DEC92E086
:1057B000FC0101962091F100208322E0853D9207B3
:1057C000B9F70E94BB268091E80083FF1EC180913B
:1057D000CD029091CE029A3008F017C1E92FF0E087
:1057E000EF56F14D0C94912D803899F0823809F0E4
:1057F0000CC18091D1028F70873008F006C1809370
:10580000E9008091EB0085FB882780F91092E90080
:1058100006C08091C9029091CA0291118260909154
:10582000E800977F9093E8008093F1001092F100D8
:105830008091E8008E77E5C0882309F4D3C08230D8
:1058400009F0E3C08091CF028111D6C08091D102CE
:105850008F702FEF280F263008F0D7C08093E90013
:105860002091EB0020FFC8C0933031F48091EB0011
:1058700080628093EB00C0C09091EB0090619093A8
:10588000EB0021E030E001C0220F8A95EAF7209377
:10589000EA001092EA008091EB008860EACF811163
:1058A000B4C01091CF021F778091E3008078812BE4
:1058B0008093E3008091E800877F8093E8000E9456
:1058C000E9298091E80080FFFCCF8091E3008068A7
:1058D0008093E30082E0111183E08093CC0295C0B5
:1058E0008058823008F091C08091CF029091D00210
:1058F0008C3D23E09207A1F583E08A838AE28983C5
:105900004FB7F894DE01139620E03EE051E2E32F1A
:10591000F0E050935700E49120FF03C0E295EF7050
:105920003F5FEF708E2F90E0EA30C0F0C7968D9306
:105930009D932F5F243159F74FBF8091E800877FF7
:105940008093E8006AE270E0CE0101960E9400298F
:105950008091E8008B778093E80057C0C096E7CF2E
:105960006091D1027091D202AE014F5F5F4F0E94F1
:10597000F127BC01892B09F448C08091E800877F9A
:105980008093E80089819A810E945A29E1CF80386A
:10599000E1F58091E800877F8093E8008091C8025C
:1059A0008093F10045CF811130C09091CF029230A9
:1059B00060F58091E800877F8093E8009093C802AB
:1059C0000E94E9298091C802882311F084E005C073
:1059D0008091E30087FDFACF81E08093CC020E94A2
:1059E000A72613C08091CF02813079F481E09330F3
:1059F00009F080E08093CA021092E9008091E800EB
:105A0000877F8093E8000E94E9298091E80083FF66
:105A10000AC08091E800877F8093E8008091EB00C6
:105A200080628093EB00AA960FB6F894DEBF0FBE9B
:105A3000CDBFDF91CF911F9108950895CF938091AD
:105A4000CC028823A1F0C091E900CF709091EC00C6
:105A5000892F817090FD80E8C82B1092E900809119
:105A6000E80083FD0E94CB2BCF70C093E900CF915B
:105A7000089587FB082E062687FD819567FD6195B1
:105A80000E94CF2D0EF4919507FC81950895AA1BD5
:105A9000BB1B51E107C0AA1FBB1FA617B70710F019
:105AA000A61BB70B881F991F5A95A9F7809590954B
:105AB000BC01CD01089597FB072E16F4009407D082
:105AC00077FD09D00E94472D07FC05D03EF4909544
:105AD00081959F4F0895709561957F4F0895A1E23C
